{
    "contractName": "OrgOperation",
    "abi": [
        {
            "inputs": [],
            "stateMutability": "nonpayable",
            "type": "constructor"
        },
        {
            "stateMutability": "payable",
            "type": "fallback"
        },
        {
            "inputs": [
                {
                    "internalType": "address",
                    "name": "org_address",
                    "type": "address"
                }
            ],
            "name": "RemoveCharityIfFinancialReportFraud",
            "outputs": [],
            "stateMutability": "nonpayable",
            "type": "function"
        },
        {
            "inputs": [
                {
                    "internalType": "address",
                    "name": "org_address",
                    "type": "address"
                }
            ],
            "name": "RemoveCharityIfFraud",
            "outputs": [],
            "stateMutability": "nonpayable",
            "type": "function"
        },
        {
            "inputs": [],
            "name": "admin",
            "outputs": [
                {
                    "internalType": "address",
                    "name": "",
                    "type": "address"
                }
            ],
            "stateMutability": "view",
            "type": "function"
        },
        {
            "inputs": [],
            "name": "changeIsStakedPaid",
            "outputs": [],
            "stateMutability": "nonpayable",
            "type": "function"
        },
        {
            "inputs": [
                {
                    "internalType": "address",
                    "name": "org_address",
                    "type": "address"
                }
            ],
            "name": "checkFinancialReportStatus",
            "outputs": [],
            "stateMutability": "nonpayable",
            "type": "function"
        },
        {
            "inputs": [
                {
                    "internalType": "address",
                    "name": "org_address",
                    "type": "address"
                }
            ],
            "name": "checkIfDownvoted",
            "outputs": [
                {
                    "internalType": "bool",
                    "name": "",
                    "type": "bool"
                }
            ],
            "stateMutability": "view",
            "type": "function"
        },
        {
            "inputs": [
                {
                    "internalType": "address",
                    "name": "org_address",
                    "type": "address"
                }
            ],
            "name": "checkIfUpvoted",
            "outputs": [
                {
                    "internalType": "bool",
                    "name": "",
                    "type": "bool"
                }
            ],
            "stateMutability": "view",
            "type": "function"
        },
        {
            "inputs": [
                {
                    "internalType": "address",
                    "name": "org_address",
                    "type": "address"
                }
            ],
            "name": "checkVerificationStatus",
            "outputs": [
                {
                    "internalType": "bool",
                    "name": "",
                    "type": "bool"
                }
            ],
            "stateMutability": "view",
            "type": "function"
        },
        {
            "inputs": [
                {
                    "internalType": "address",
                    "name": "org_address",
                    "type": "address"
                }
            ],
            "name": "checkViolationStatus",
            "outputs": [],
            "stateMutability": "nonpayable",
            "type": "function"
        },
        {
            "inputs": [
                {
                    "internalType": "address",
                    "name": "org_addr",
                    "type": "address"
                }
            ],
            "name": "countOfDownvotes",
            "outputs": [
                {
                    "internalType": "uint256",
                    "name": "",
                    "type": "uint256"
                }
            ],
            "stateMutability": "view",
            "type": "function"
        },
        {
            "inputs": [
                {
                    "internalType": "address",
                    "name": "org_addr",
                    "type": "address"
                }
            ],
            "name": "countOfUpvotes",
            "outputs": [
                {
                    "internalType": "uint256",
                    "name": "",
                    "type": "uint256"
                }
            ],
            "stateMutability": "view",
            "type": "function"
        },
        {
            "inputs": [
                {
                    "internalType": "address",
                    "name": "org_addr",
                    "type": "address"
                }
            ],
            "name": "countOfViews",
            "outputs": [
                {
                    "internalType": "uint256",
                    "name": "",
                    "type": "uint256"
                }
            ],
            "stateMutability": "view",
            "type": "function"
        },
        {
            "inputs": [],
            "name": "cutStakeOfNotVoted",
            "outputs": [],
            "stateMutability": "nonpayable",
            "type": "function"
        },
        {
            "inputs": [
                {
                    "internalType": "address",
                    "name": "org_address",
                    "type": "address"
                },
                {
                    "internalType": "bool",
                    "name": "category",
                    "type": "bool"
                }
            ],
            "name": "distributeStake",
            "outputs": [],
            "stateMutability": "nonpayable",
            "type": "function"
        },
        {
            "inputs": [
                {
                    "internalType": "address",
                    "name": "org_addr",
                    "type": "address"
                },
                {
                    "internalType": "uint256",
                    "name": "current_time",
                    "type": "uint256"
                }
            ],
            "name": "downVote",
            "outputs": [
                {
                    "internalType": "bool",
                    "name": "",
                    "type": "bool"
                }
            ],
            "stateMutability": "nonpayable",
            "type": "function"
        },
        {
            "inputs": [],
            "name": "emptyListOrganization",
            "outputs": [],
            "stateMutability": "nonpayable",
            "type": "function"
        },
        {
            "inputs": [
                {
                    "internalType": "address",
                    "name": "org_address",
                    "type": "address"
                }
            ],
            "name": "emptyNotVotedArray",
            "outputs": [],
            "stateMutability": "nonpayable",
            "type": "function"
        },
        {
            "inputs": [],
            "name": "isStaked",
            "outputs": [
                {
                    "internalType": "bool",
                    "name": "",
                    "type": "bool"
                }
            ],
            "stateMutability": "view",
            "type": "function"
        },
        {
            "inputs": [],
            "name": "isVerified",
            "outputs": [
                {
                    "internalType": "bool",
                    "name": "",
                    "type": "bool"
                }
            ],
            "stateMutability": "view",
            "type": "function"
        },
        {
            "inputs": [
                {
                    "internalType": "address",
                    "name": "org_address",
                    "type": "address"
                }
            ],
            "name": "markAsVerified",
            "outputs": [],
            "stateMutability": "nonpayable",
            "type": "function"
        },
        {
            "inputs": [
                {
                    "internalType": "address",
                    "name": "org_address",
                    "type": "address"
                }
            ],
            "name": "notVoted",
            "outputs": [
                {
                    "internalType": "address[]",
                    "name": "",
                    "type": "address[]"
                }
            ],
            "stateMutability": "nonpayable",
            "type": "function"
        },
        {
            "inputs": [
                {
                    "internalType": "address",
                    "name": "org_address",
                    "type": "address"
                },
                {
                    "internalType": "string",
                    "name": "cid",
                    "type": "string"
                },
                {
                    "internalType": "uint256",
                    "name": "registration_time",
                    "type": "uint256"
                }
            ],
            "name": "registerFinancialReport",
            "outputs": [],
            "stateMutability": "nonpayable",
            "type": "function"
        },
        {
            "inputs": [
                {
                    "internalType": "address",
                    "name": "organization_address",
                    "type": "address"
                },
                {
                    "internalType": "string",
                    "name": "organization_name",
                    "type": "string"
                },
                {
                    "internalType": "string",
                    "name": "document_cid",
                    "type": "string"
                },
                {
                    "internalType": "string",
                    "name": "description",
                    "type": "string"
                },
                {
                    "internalType": "uint256",
                    "name": "time",
                    "type": "uint256"
                }
            ],
            "name": "registerOrg",
            "outputs": [],
            "stateMutability": "nonpayable",
            "type": "function"
        },
        {
            "inputs": [
                {
                    "internalType": "address",
                    "name": "organization_address",
                    "type": "address"
                },
                {
                    "internalType": "string",
                    "name": "document_cid",
                    "type": "string"
                },
                {
                    "internalType": "string",
                    "name": "description",
                    "type": "string"
                },
                {
                    "internalType": "uint256",
                    "name": "registration_time",
                    "type": "uint256"
                }
            ],
            "name": "registerViolation",
            "outputs": [],
            "stateMutability": "nonpayable",
            "type": "function"
        },
        {
            "inputs": [
                {
                    "internalType": "address",
                    "name": "org_address",
                    "type": "address"
                }
            ],
            "name": "reportUpVote",
            "outputs": [],
            "stateMutability": "nonpayable",
            "type": "function"
        },
        {
            "inputs": [
                {
                    "internalType": "address",
                    "name": "org_address",
                    "type": "address"
                }
            ],
            "name": "reportsDownVote",
            "outputs": [],
            "stateMutability": "nonpayable",
            "type": "function"
        },
        {
            "inputs": [],
            "name": "totalOrganizations",
            "outputs": [
                {
                    "internalType": "uint256",
                    "name": "",
                    "type": "uint256"
                }
            ],
            "stateMutability": "view",
            "type": "function"
        },
        {
            "inputs": [],
            "name": "unverifiedOrganizationsList",
            "outputs": [
                {
                    "components": [
                        {
                            "internalType": "address",
                            "name": "org_address",
                            "type": "address"
                        },
                        {
                            "internalType": "string",
                            "name": "name",
                            "type": "string"
                        },
                        {
                            "internalType": "string",
                            "name": "doc_cid",
                            "type": "string"
                        },
                        {
                            "internalType": "uint256",
                            "name": "upvotes",
                            "type": "uint256"
                        },
                        {
                            "internalType": "uint256",
                            "name": "downvotes",
                            "type": "uint256"
                        },
                        {
                            "internalType": "uint256",
                            "name": "views",
                            "type": "uint256"
                        },
                        {
                            "internalType": "bool",
                            "name": "verification_status",
                            "type": "bool"
                        },
                        {
                            "internalType": "string",
                            "name": "desc",
                            "type": "string"
                        },
                        {
                            "internalType": "uint256",
                            "name": "application_time",
                            "type": "uint256"
                        }
                    ],
                    "internalType": "struct OrgCreation.OrgDetails[]",
                    "name": "",
                    "type": "tuple[]"
                }
            ],
            "stateMutability": "view",
            "type": "function"
        },
        {
            "inputs": [
                {
                    "internalType": "address",
                    "name": "org_addr",
                    "type": "address"
                },
                {
                    "internalType": "uint256",
                    "name": "current_time",
                    "type": "uint256"
                }
            ],
            "name": "upVote",
            "outputs": [
                {
                    "internalType": "bool",
                    "name": "",
                    "type": "bool"
                }
            ],
            "stateMutability": "nonpayable",
            "type": "function"
        },
        {
            "inputs": [
                {
                    "internalType": "address",
                    "name": "org_address",
                    "type": "address"
                }
            ],
            "name": "upvotedOnFinancialReport",
            "outputs": [],
            "stateMutability": "nonpayable",
            "type": "function"
        },
        {
            "inputs": [
                {
                    "internalType": "address",
                    "name": "org_address",
                    "type": "address"
                }
            ],
            "name": "upvotedOnVerify",
            "outputs": [],
            "stateMutability": "nonpayable",
            "type": "function"
        },
        {
            "inputs": [],
            "name": "verifiedOrganizationsList",
            "outputs": [
                {
                    "components": [
                        {
                            "internalType": "address",
                            "name": "org_address",
                            "type": "address"
                        },
                        {
                            "internalType": "string",
                            "name": "name",
                            "type": "string"
                        },
                        {
                            "internalType": "string",
                            "name": "doc_cid",
                            "type": "string"
                        },
                        {
                            "internalType": "uint256",
                            "name": "upvotes",
                            "type": "uint256"
                        },
                        {
                            "internalType": "uint256",
                            "name": "downvotes",
                            "type": "uint256"
                        },
                        {
                            "internalType": "uint256",
                            "name": "views",
                            "type": "uint256"
                        },
                        {
                            "internalType": "bool",
                            "name": "verification_status",
                            "type": "bool"
                        },
                        {
                            "internalType": "string",
                            "name": "desc",
                            "type": "string"
                        },
                        {
                            "internalType": "uint256",
                            "name": "application_time",
                            "type": "uint256"
                        }
                    ],
                    "internalType": "struct OrgCreation.OrgDetails[]",
                    "name": "",
                    "type": "tuple[]"
                }
            ],
            "stateMutability": "view",
            "type": "function"
        },
        {
            "inputs": [
                {
                    "internalType": "address",
                    "name": "org_address",
                    "type": "address"
                }
            ],
            "name": "violationDownVote",
            "outputs": [],
            "stateMutability": "nonpayable",
            "type": "function"
        },
        {
            "inputs": [
                {
                    "internalType": "address",
                    "name": "org_address",
                    "type": "address"
                }
            ],
            "name": "violationUpVote",
            "outputs": [],
            "stateMutability": "nonpayable",
            "type": "function"
        },
        {
            "inputs": [
                {
                    "internalType": "address",
                    "name": "org_addr",
                    "type": "address"
                },
                {
                    "internalType": "uint256",
                    "name": "current_time",
                    "type": "uint256"
                }
            ],
            "name": "votingDone",
            "outputs": [
                {
                    "internalType": "bool",
                    "name": "",
                    "type": "bool"
                }
            ],
            "stateMutability": "view",
            "type": "function"
        },
        {
            "stateMutability": "payable",
            "type": "receive"
        }
    ],
    "bytecode": "608060405260016008553480156200001657600080fd5b50600780546001600160a01b031916339081179091556706f05b59d3b20000600a556000600b908155604080518082018252600581526427bbb732b960d91b6020808301919091528251808401845260048152634e6f6e6560e01b8183015283518085019094529383526a2232b9b1b934b83a34b7b760a91b90830152620000a29392909142620000c5565b336000908152602081905260409020600601805460ff191660011790556200045e565b6001600160a01b0385166000908152602081905260409020600d015415620001335760405162461bcd60e51b815260206004820181905260248201527f4f7267616e697a6174696f6e20616c7265616479207265676973746572656421604482015260640160405180910390fd5b6001600160a01b038516600081815260208190526040902080546001600160a01b03191690911781556001016200016b858262000350565b506001600160a01b038516600090815260208190526040902060020162000193848262000350565b506001600160a01b0385166000908152602081905260409020600b01620001bb838262000350565b50620001cb816202a30062000432565b6001600160a01b0386166000908152602081905260409020600d0155620001f28562000267565b620001ff90600162000432565b6001600160a01b039095166000818152602081905260408120600501969096556004805460018101825596527f8a35acfbc15ff81a39ae7d344fd709f28e8600b4aa8c65c6b64bfe7fe36bd19b90950180546001600160a01b03191690951790945550505050565b6001600160a01b0381166000908152602081905260408120600481015460039091015460095462000299919062000448565b620002a5919062000448565b92915050565b634e487b7160e01b600052604160045260246000fd5b600181811c90821680620002d657607f821691505b602082108103620002f757634e487b7160e01b600052602260045260246000fd5b50919050565b601f8211156200034b57600081815260208120601f850160051c81016020861015620003265750805b601f850160051c820191505b81811015620003475782815560010162000332565b5050505b505050565b81516001600160401b038111156200036c576200036c620002ab565b62000384816200037d8454620002c1565b84620002fd565b602080601f831160018114620003bc5760008415620003a35750858301515b600019600386901b1c1916600185901b17855562000347565b600085815260208120601f198616915b82811015620003ed57888601518255948401946001909101908401620003cc565b50858210156200040c5787850151600019600388901b60f8161c191681555b5050505050600190811b01905550565b634e487b7160e01b600052601160045260246000fd5b80820180821115620002a557620002a56200041c565b81810381811115620002a557620002a56200041c565b613501806200046e6000396000f3fe6080604052600436106101ef5760003560e01c806380007e831161010c578063b7627e411161009a578063e3323aba1161006c578063e3323aba1461060c578063e75176b514610634578063ef2d584714610654578063f15c01dd14610674578063f851a4401461069457005b8063b7627e411461057e578063bc489aa9146105b7578063c9dfca10146105cc578063e2579114146105ec57005b8063a1b0ffe0116100de578063a1b0ffe0146104c2578063a52da85d146104f1578063ac64fcde1461051e578063ae51c2bc1461053e578063b5e801d51461055e57005b806380007e831461044557806380e179e91461046d5780638e3495191461048d5780638fc0ed2f146104ad57005b80634648df2a116101895780635cf9303f1161015b5780635cf9303f146103975780635d0161f1146103d057806362ae7ac7146103e55780636fc3911c14610405578063712062741461042557005b80634648df2a14610313578063482bd55b146103335780634cf5d5521461035357806355779b651461037757005b80632d80468d116101c25780632d80468d146102785780633e85747e146102a3578063440370fe146102d35780634438d4b0146102f357005b806237556e146101f85780630a54ecbf1461021857806314cb11e8146102385780631e4771801461025857005b366101f657005b005b34801561020457600080fd5b506101f6610213366004612ddc565b6106cc565b34801561022457600080fd5b506101f6610233366004612ddc565b61073c565b34801561024457600080fd5b506101f6610253366004612ddc565b610950565b34801561026457600080fd5b506101f6610273366004612dfe565b6109c0565b34801561028457600080fd5b5061028d610fdd565b60405161029a9190612e80565b60405180910390f35b3480156102af57600080fd5b506102c36102be366004612ddc565b61136d565b604051901515815260200161029a565b3480156102df57600080fd5b506101f66102ee366004613011565b61139a565b3480156102ff57600080fd5b506101f661030e366004612ddc565b611530565b34801561031f57600080fd5b506102c361032e3660046130b2565b611766565b34801561033f57600080fd5b506101f661034e3660046130dc565b61179b565b34801561035f57600080fd5b5061036960095481565b60405190815260200161029a565b34801561038357600080fd5b506101f6610392366004612ddc565b611834565b3480156103a357600080fd5b506103696103b2366004612ddc565b6001600160a01b031660009081526020819052604090206003015490565b3480156103dc57600080fd5b5061028d6118a4565b3480156103f157600080fd5b506101f6610400366004612ddc565b611bbb565b34801561041157600080fd5b506102c3610420366004612ddc565b611c20565b34801561043157600080fd5b506101f6610440366004612ddc565b611c6d565b34801561045157600080fd5b503360009081526020819052604090206006015460ff166102c3565b34801561047957600080fd5b506101f6610488366004612ddc565b611d23565b34801561049957600080fd5b506101f66104a8366004612ddc565b611dd9565b3480156104b957600080fd5b506101f6611f6f565b3480156104ce57600080fd5b506101f6336000908152602081905260409020600e01805460ff19166001179055565b3480156104fd57600080fd5b5061051161050c366004612ddc565b612052565b60405161029a9190613133565b34801561052a57600080fd5b506101f6610539366004613180565b6122c4565b34801561054a57600080fd5b506101f6610559366004612ddc565b61237f565b34801561056a57600080fd5b506101f6610579366004612ddc565b6125b6565b34801561058a57600080fd5b50610369610599366004612ddc565b6001600160a01b031660009081526020819052604090206004015490565b3480156105c357600080fd5b506101f6612622565b3480156105d857600080fd5b506102c36105e7366004612ddc565b6126ca565b3480156105f857600080fd5b506102c36106073660046130b2565b6126f7565b34801561061857600080fd5b50336000908152602081905260409020600e015460ff166102c3565b34801561064057600080fd5b5061036961064f366004612ddc565b6128d9565b34801561066057600080fd5b506101f661066f366004612ddc565b612913565b34801561068057600080fd5b506102c361068f3660046130b2565b612b25565b3480156106a057600080fd5b506007546106b4906001600160a01b031681565b6040516001600160a01b03909116815260200161029a565b6001600160a01b0381166000908152600d60205260409020600401546106f3906001613212565b6001600160a01b039091166000908152600d6020908152604082206004810193909355600690920180546001810182559082529190200180546001600160a01b03191633179055565b6001600160a01b0381166000908152600d60205260409020600b015460ff161561094d5760005b6001600160a01b03821660009081526020819052604090206007015481101561085557600a546001600160a01b03831660009081526020819052604081206007018054829190859081106107b9576107b9613225565b60009182526020808320909101546001600160a01b031683528201929092526040019020600a01546107eb919061323b565b6001600160a01b038316600090815260208190526040812060070180548291908590811061081b5761081b613225565b60009182526020808320909101546001600160a01b031683528201929092526040019020600a01558061084d8161324e565b915050610763565b5060005b6001600160a01b03821660009081526020819052604090206008015481101561094b57600a546001600160a01b03831660009081526020819052604081206008018054829190859081106108af576108af613225565b60009182526020808320909101546001600160a01b031683528201929092526040019020600a01546108e19190613212565b6001600160a01b038316600090815260208190526040812060080180548291908590811061091157610911613225565b60009182526020808320909101546001600160a01b031683528201929092526040019020600a0155806109438161324e565b915050610859565b505b50565b6001600160a01b0381166000908152600e6020526040902060020154610977906001613212565b6001600160a01b039091166000908152600e6020908152604082206002810193909355600490920180546001810182559082529190200180546001600160a01b03191633179055565b8015610cd2576000805b6001600160a01b038416600090815260208190526040902060030154811015610b91576001600160a01b0384166000908152602081905260408120600701805482919084908110610a1d57610a1d613225565b60009182526020808320909101546001600160a01b031683528201929092526040019020600c0154610a50906001613212565b6001600160a01b0385166000908152602081905260408120600701805482919085908110610a8057610a80613225565b60009182526020808320909101546001600160a01b031683528201929092526040019020600c0155600a54610ab59083613212565b9150600a54600080806000886001600160a01b03166001600160a01b031681526020019081526020016000206007018481548110610af557610af5613225565b60009182526020808320909101546001600160a01b031683528201929092526040019020600a0154610b279190613212565b6001600160a01b0385166000908152602081905260408120600701805482919085908110610b5757610b57613225565b60009182526020808320909101546001600160a01b031683528201929092526040019020600a015580610b898161324e565b9150506109ca565b506001600160a01b0383166000908152602081905260409020600a0154610bb990829061323b565b6001600160a01b0384166000908152602081905260408120600a01919091555b6001600160a01b038416600090815260208190526040902060040154811015610ccb576001600160a01b0384166000908152602081905260408120600801805460019291829185908110610c2f57610c2f613225565b60009182526020808320909101546001600160a01b031683528201929092526040019020600c0154610c61919061323b565b6001600160a01b0385166000908152602081905260408120600801805482919085908110610c9157610c91613225565b60009182526020808320909101546001600160a01b031683528201929092526040019020600c015580610cc38161324e565b915050610bd9565b505061094b565b6000805b6001600160a01b038416600090815260208190526040902060040154811015610e9d576001600160a01b0384166000908152602081905260408120600801805482919084908110610d2957610d29613225565b60009182526020808320909101546001600160a01b031683528201929092526040019020600c0154610d5c906001613212565b6001600160a01b0385166000908152602081905260408120600801805482919085908110610d8c57610d8c613225565b60009182526020808320909101546001600160a01b031683528201929092526040019020600c0155600a54610dc19083613212565b9150600a54600080806000886001600160a01b03166001600160a01b031681526020019081526020016000206008018481548110610e0157610e01613225565b60009182526020808320909101546001600160a01b031683528201929092526040019020600a0154610e339190613212565b6001600160a01b0385166000908152602081905260408120600801805482919085908110610e6357610e63613225565b60009182526020808320909101546001600160a01b031683528201929092526040019020600a015580610e958161324e565b915050610cd6565b506001600160a01b0383166000908152602081905260409020600a0154610ec590829061323b565b6001600160a01b0384166000908152602081905260408120600a01919091555b6001600160a01b038416600090815260208190526040902060030154811015610fd7576001600160a01b0384166000908152602081905260408120600701805460019291829185908110610f3b57610f3b613225565b60009182526020808320909101546001600160a01b031683528201929092526040019020600c0154610f6d919061323b565b6001600160a01b0385166000908152602081905260408120600701805482919085908110610f9d57610f9d613225565b60009182526020808320909101546001600160a01b031683528201929092526040019020600c015580610fcf8161324e565b915050610ee5565b50505050565b600454600854606091906000908190610ff6908461323b565b67ffffffffffffffff81111561100e5761100e612f6e565b60405190808252806020026020018201604052801561104757816020015b611034612cfc565b81526020019060019003908161102c5790505b50905060005b838110156113655760006004828154811061106a5761106a613225565b60009182526020808320909101546001600160a01b03168083529082905260409091206006015490915060ff166113525760408051610120810182526001600160a01b0380841660008181526020818152948120805490931684529081528084526001909101805491938301916110e090613267565b80601f016020809104026020016040519081016040528092919081815260200182805461110c90613267565b80156111595780601f1061112e57610100808354040283529160200191611159565b820191906000526020600020905b81548152906001019060200180831161113c57829003601f168201915b50505050508152602001600080856001600160a01b03166001600160a01b03168152602001908152602001600020600201805461119590613267565b80601f01602080910402602001604051908101604052809291908181526020018280546111c190613267565b801561120e5780601f106111e35761010080835404028352916020019161120e565b820191906000526020600020905b8154815290600101906020018083116111f157829003601f168201915b50505091835250506001600160a01b03841660008181526020818152604080832060038101548387015260048101549186019190915260058101546060860152600681015460ff161515608086015292825252600b01805460a09092019161127590613267565b80601f01602080910402602001604051908101604052809291908181526020018280546112a190613267565b80156112ee5780601f106112c3576101008083540402835291602001916112ee565b820191906000526020600020905b8154815290600101906020018083116112d157829003601f168201915b50505050508152602001600080856001600160a01b03166001600160a01b03168152602001908152602001600020600d015481525090508084868151811061133857611338613225565b602090810291909101015261134e600186613212565b9450505b508061135d8161324e565b91505061104d565b509392505050565b6001600160a01b031660009081526020818152604080832033845260090190915290205460ff1660011490565b6001600160a01b0385166000908152602081905260409020600d0154156114085760405162461bcd60e51b815260206004820181905260248201527f4f7267616e697a6174696f6e20616c726561647920726567697374657265642160448201526064015b60405180910390fd5b6001600160a01b038516600081815260208190526040902080546001600160a01b031916909117815560010161143e85826132ef565b506001600160a01b038516600090815260208190526040902060020161146484826132ef565b506001600160a01b0385166000908152602081905260409020600b0161148a83826132ef565b50611498816202a300613212565b6001600160a01b0386166000908152602081905260409020600d01556114bd856128d9565b6114c8906001613212565b6001600160a01b039095166000818152602081905260408120600501969096556004805460018101825596527f8a35acfbc15ff81a39ae7d344fd709f28e8600b4aa8c65c6b64bfe7fe36bd19b90950180546001600160a01b03191690951790945550505050565b6001600160a01b0381166000908152600e602052604081206007015460ff161515900361094d576001600160a01b0381166000908152602081905260408120600601805460ff19169055600980546001929061158d90849061323b565b90915550506001600160a01b0381166000908152600260205260408120805460ff19169055805b6004548110156116f257600080600483815481106115d4576115d4613225565b60009182526020808320909101546001600160a01b0316835282019290925260400190206006015460ff16801561164757506000806004838154811061161c5761161c613225565b60009182526020808320909101546001600160a01b031683528201929092526040019020600c015482105b156116e0576000806004838154811061166257611662613225565b60009182526020808320909101546001600160a01b031683528201929092526040019020600c015460048054919350600691839081106116a4576116a4613225565b60009182526020808320909101548354600181018555938352912090910180546001600160a01b0319166001600160a01b039092169190911790555b806116ea8161324e565b9150506115b4565b5060005b600654811015611712578061170a8161324e565b9150506116f6565b5060065460005b81811015610fd7576006805480611732576117326133af565b600082815260209020810160001990810180546001600160a01b03191690550190558061175e8161324e565b915050611719565b6001600160a01b0382166000908152602081905260408120600d015482111561179157506001611795565b5060005b92915050565b6001600160a01b0383166000818152600e60209081526040822080546001600160a01b031916909317835560089092018054600181018255908252919020016117e483826132ef565b506001600160a01b0383166000908152600e602052604090206005018190556118108162069780613212565b6001600160a01b039093166000908152600e60205260409020600601929092555050565b6001600160a01b0381166000908152600d602052604090206003015461185b906001613212565b6001600160a01b039091166000908152600d6020908152604082206003810193909355600590920180546001810182559082529190200180546001600160a01b03191633179055565b60045460085460609190600090819067ffffffffffffffff8111156118cb576118cb612f6e565b60405190808252806020026020018201604052801561190457816020015b6118f1612cfc565b8152602001906001900390816118e95790505b50905060005b838110156113655760006004828154811061192757611927613225565b60009182526020808320909101546001600160a01b03168083529082905260409091206006015490915060ff1615611ba8576001600160a01b038082166000908152602081815260408083208151610120810190925280549094168152600184018054919283019161199890613267565b80601f01602080910402602001604051908101604052809291908181526020018280546119c490613267565b8015611a115780601f106119e657610100808354040283529160200191611a11565b820191906000526020600020905b8154815290600101906020018083116119f457829003601f168201915b50505050508152602001836002018054611a2a90613267565b80601f0160208091040260200160405190810160405280929190818152602001828054611a5690613267565b8015611aa35780601f10611a7857610100808354040283529160200191611aa3565b820191906000526020600020905b815481529060010190602001808311611a8657829003601f168201915b5050509183525050600384015460208201526004840154604082015260058401546060820152600684015460ff1615156080820152600b8401805460a090920191611aed90613267565b80601f0160208091040260200160405190810160405280929190818152602001828054611b1990613267565b8015611b665780601f10611b3b57610100808354040283529160200191611b66565b820191906000526020600020905b815481529060010190602001808311611b4957829003601f168201915b5050505050815260200183600d0154815250905080858781518110611b8d57611b8d613225565b6020908102919091010152611ba3600187613212565b955050505b5080611bb38161324e565b91505061190a565b6001600160a01b0381166000908152602081905260408120600601805460ff191660019081179091556009805491929091611bf7908490613212565b90915550506001600160a01b03166000908152600260205260409020805460ff19166001179055565b60006009546033611c3191906133c5565b6001600160a01b038316600090815260208190526040902060030154611c589060646133c5565b10611c6557506001919050565b506000919050565b6001600160a01b0381166000908152600d602052604081206004810154600390910154611c9a9190613212565b9050611ca78160336133c5565b6001600160a01b0383166000908152600d6020526040902060030154611cce9060646133c5565b10611cfe576001600160a01b0382166000908152600d60205260409020600b01805460ff1916600117905561094b565b506001600160a01b03166000908152600d60205260409020600b01805460ff19169055565b6001600160a01b0381166000908152600e602052604081206002810154600190910154611d509190613212565b9050611d5d8160336133c5565b6001600160a01b0383166000908152600e6020526040902060010154611d849060646133c5565b10611db4576001600160a01b0382166000908152600e60205260409020600701805460ff1916600117905561094b565b506001600160a01b03166000908152600e60205260409020600701805460ff19169055565b60055460005b81811015611e2c576005805480611df857611df86133af565b600082815260209020810160001990810180546001600160a01b031916905501905580611e248161324e565b915050611ddf565b5060005b6001600160a01b038316600090815260208190526040902060070154811015611ecb576001600160a01b03831660009081526020819052604081206007018054600391839185908110611e8557611e85613225565b6000918252602080832091909101546001600160a01b031683528201929092526040019020805460ff191691151591909117905580611ec38161324e565b915050611e30565b5060005b6001600160a01b038316600090815260208190526040902060080154811015611f6a576001600160a01b03831660009081526020819052604081206008018054600391839185908110611f2457611f24613225565b6000918252602080832091909101546001600160a01b031683528201929092526040019020805460ff191691151591909117905580611f628161324e565b915050611ecf565b505050565b600c5460005b8181101561094b57600c805480611f8e57611f8e6133af565b600082815260208120600f6000199093019283020180546001600160a01b031916815590611fbf6001830182612d53565b611fcd600283016000612d53565b600060038301819055600483018190556005830181905560068301805460ff19169055611ffe906007840190612d8d565b61200c600883016000612d8d565b600a820160009055600b820160006120249190612d53565b506000600c8201819055600d820155600e01805460ff1916905590558061204a8161324e565b915050611f75565b606060005b6001600160a01b0383166000908152602081905260409020600701548110156120fe57600160036000806000876001600160a01b03166001600160a01b0316815260200190815260200160002060070184815481106120b8576120b8613225565b6000918252602080832091909101546001600160a01b031683528201929092526040019020805460ff1916911515919091179055806120f68161324e565b915050612057565b5060005b6001600160a01b0383166000908152602081905260409020600801548110156121a957600160036000806000876001600160a01b03166001600160a01b03168152602001908152602001600020600801848154811061216357612163613225565b6000918252602080832091909101546001600160a01b031683528201929092526040019020805460ff1916911515919091179055806121a18161324e565b915050612102565b5060005b6004548110156122615760036000600483815481106121ce576121ce613225565b60009182526020808320909101546001600160a01b0316835282019290925260400181205460ff161515900361224f5760056004828154811061221357612213613225565b60009182526020808320909101548354600181018555938352912090910180546001600160a01b0319166001600160a01b039092169190911790555b806122598161324e565b9150506121ad565b5060058054806020026020016040519081016040528092919081815260200182805480156122b857602002820191906000526020600020905b81546001600160a01b0316815260019091019060200180831161229a575b50505050509050919050565b6001600160a01b0384166000818152600d6020526040902080546001600160a01b03191690911781556001016122fa84826132ef565b506001600160a01b0384166000908152600d6020526040902060020161232083826132ef565b506001600160a01b0384166000908152600d6020526040902060090181905561234c8162069780613212565b6001600160a01b0385166000908152600d60205260409020600a0155600b54612376906001613212565b600b5550505050565b6001600160a01b0381166000908152600d60205260409020600b015460ff16151560010361094d576001600160a01b0381166000908152602081905260408120600601805460ff1916905560098054600192906123dd90849061323b565b90915550506001600160a01b0381166000908152600260205260408120805460ff19169055805b600454811015612542576000806004838154811061242457612424613225565b60009182526020808320909101546001600160a01b0316835282019290925260400190206006015460ff16801561249757506000806004838154811061246c5761246c613225565b60009182526020808320909101546001600160a01b031683528201929092526040019020600c015482105b1561253057600080600483815481106124b2576124b2613225565b60009182526020808320909101546001600160a01b031683528201929092526040019020600c015460048054919350600691839081106124f4576124f4613225565b60009182526020808320909101548354600181018555938352912090910180546001600160a01b0319166001600160a01b039092169190911790555b8061253a8161324e565b915050612404565b5060005b600654811015612562578061255a8161324e565b915050612546565b5060065460005b81811015610fd7576006805480612582576125826133af565b600082815260209020810160001990810180546001600160a01b0319169055019055806125ae8161324e565b915050612569565b6001600160a01b0381166000908152600e602052604090206001908101546125dd91613212565b6001600160a01b039091166000908152600e60209081526040822060018082019490945560030180549384018155825290200180546001600160a01b03191633179055565b60005b60055481101561094d57600a546000806005848154811061264857612648613225565b60009182526020808320909101546001600160a01b031683528201929092526040019020600a015461267a919061323b565b6000806005848154811061269057612690613225565b60009182526020808320909101546001600160a01b031683528201929092526040019020600a0155806126c28161324e565b915050612625565b6001600160a01b031660009081526020818152604080832033845260090190915290205460ff1660021490565b6001600160a01b0382166000908152602081905260408120600d0154839082036127335760405162461bcd60e51b81526004016113ff906133dc565b6001600160a01b03811660009081526020819052604090206006015460ff161561279f5760405162461bcd60e51b815260206004820152601e60248201527f4f7267616e697a6174696f6e20616c726561647920766572696669656421000060448201526064016113ff565b336000908152602081905260409020600d0154158015906127d257503360009081526020819052604090206006015460ff165b6127ee5760405162461bcd60e51b81526004016113ff90613420565b6127f7816126ca565b15801561280a57506128088161136d565b155b6128265760405162461bcd60e51b81526004016113ff9061347d565b6001600160a01b0384166000908152602081905260408120600301805460019290612852908490613212565b90915550506001600160a01b0384166000908152602081815260408083206007810180546001810182559085528385200180546001600160a01b0319163390811790915584526009019091529020805460ff191660021790556128b58484611766565b156128cd576128c384611c20565b50600191506128d2565b600091505b5092915050565b6001600160a01b03811660009081526020819052604081206004810154600390910154600954612909919061323b565b611795919061323b565b6001600160a01b0381166000908152600e602052604081206007015460ff161515900361094d5760005b6001600160a01b038216600090815260208190526040902060070154811015612a2f57600a546001600160a01b038316600090815260208190526040812060070180548291908590811061299357612993613225565b60009182526020808320909101546001600160a01b031683528201929092526040019020600a01546129c5919061323b565b6001600160a01b03831660009081526020819052604081206007018054829190859081106129f5576129f5613225565b60009182526020808320909101546001600160a01b031683528201929092526040019020600a015580612a278161324e565b91505061293d565b5060005b6001600160a01b03821660009081526020819052604090206008015481101561094b57600a546001600160a01b0383166000908152602081905260408120600801805482919085908110612a8957612a89613225565b60009182526020808320909101546001600160a01b031683528201929092526040019020600a0154612abb9190613212565b6001600160a01b0383166000908152602081905260408120600801805482919085908110612aeb57612aeb613225565b60009182526020808320909101546001600160a01b031683528201929092526040019020600a015580612b1d8161324e565b915050612a33565b6001600160a01b0382166000908152602081905260408120600d015483908203612b615760405162461bcd60e51b81526004016113ff906133dc565b6001600160a01b03811660009081526020819052604090206006015460ff1615612bcd5760405162461bcd60e51b815260206004820152601e60248201527f4f7267616e697a6174696f6e20616c726561647920766572696669656421000060448201526064016113ff565b336000908152602081905260409020600d015415801590612c0057503360009081526020819052604090206006015460ff165b612c1c5760405162461bcd60e51b81526004016113ff90613420565b612c25816126ca565b158015612c385750612c368161136d565b155b612c545760405162461bcd60e51b81526004016113ff9061347d565b6001600160a01b0384166000908152602081905260408120600401805460019290612c80908490613212565b90915550506001600160a01b038416600090815260208181526040808320600881018054600181810183559186528486200180546001600160a01b0319163390811790915585526009909101909252909120805460ff19169091179055612ce78484611766565b156128cd57612cf584611c20565b91506128d2565b60405180610120016040528060006001600160a01b03168152602001606081526020016060815260200160008152602001600081526020016000815260200160001515815260200160608152602001600081525090565b508054612d5f90613267565b6000825580601f10612d6f575050565b601f01602090049060005260206000209081019061094d9190612da7565b508054600082559060005260206000209081019061094d91905b5b80821115612dbc5760008155600101612da8565b5090565b80356001600160a01b0381168114612dd757600080fd5b919050565b600060208284031215612dee57600080fd5b612df782612dc0565b9392505050565b60008060408385031215612e1157600080fd5b612e1a83612dc0565b915060208301358015158114612e2f57600080fd5b809150509250929050565b6000815180845260005b81811015612e6057602081850181015186830182015201612e44565b506000602082860101526020601f19601f83011685010191505092915050565b60006020808301818452808551808352604092508286019150828160051b87010184880160005b83811015612f6057888303603f19018552815180516001600160a01b0316845261012088820151818a870152612edf82870182612e3a565b9150508782015185820389870152612ef78282612e3a565b606084810151908801526080808501519088015260a0808501519088015260c08085015115159088015260e080850151888303828a01529193509150612f3d8382612e3a565b610100948501519790940196909652505094870194925090860190600101612ea7565b509098975050505050505050565b634e487b7160e01b600052604160045260246000fd5b600082601f830112612f9557600080fd5b813567ffffffffffffffff80821115612fb057612fb0612f6e565b604051601f8301601f19908116603f01168101908282118183101715612fd857612fd8612f6e565b81604052838152866020858801011115612ff157600080fd5b836020870160208301376000602085830101528094505050505092915050565b600080600080600060a0868803121561302957600080fd5b61303286612dc0565b9450602086013567ffffffffffffffff8082111561304f57600080fd5b61305b89838a01612f84565b9550604088013591508082111561307157600080fd5b61307d89838a01612f84565b9450606088013591508082111561309357600080fd5b506130a088828901612f84565b95989497509295608001359392505050565b600080604083850312156130c557600080fd5b6130ce83612dc0565b946020939093013593505050565b6000806000606084860312156130f157600080fd5b6130fa84612dc0565b9250602084013567ffffffffffffffff81111561311657600080fd5b61312286828701612f84565b925050604084013590509250925092565b6020808252825182820181905260009190848201906040850190845b818110156131745783516001600160a01b03168352928401929184019160010161314f565b50909695505050505050565b6000806000806080858703121561319657600080fd5b61319f85612dc0565b9350602085013567ffffffffffffffff808211156131bc57600080fd5b6131c888838901612f84565b945060408701359150808211156131de57600080fd5b506131eb87828801612f84565b949793965093946060013593505050565b634e487b7160e01b600052601160045260246000fd5b80820180821115611795576117956131fc565b634e487b7160e01b600052603260045260246000fd5b81810381811115611795576117956131fc565b600060018201613260576132606131fc565b5060010190565b600181811c9082168061327b57607f821691505b60208210810361329b57634e487b7160e01b600052602260045260246000fd5b50919050565b601f821115611f6a57600081815260208120601f850160051c810160208610156132c85750805b601f850160051c820191505b818110156132e7578281556001016132d4565b505050505050565b815167ffffffffffffffff81111561330957613309612f6e565b61331d816133178454613267565b846132a1565b602080601f831160018114613352576000841561333a5750858301515b600019600386901b1c1916600185901b1785556132e7565b600085815260208120601f198616915b8281101561338157888601518255948401946001909101908401613362565b508582101561339f5787850151600019600388901b60f8161c191681555b5050505050600190811b01905550565b634e487b7160e01b600052603160045260246000fd5b8082028115828204841417611795576117956131fc565b60208082526024908201527f4f7267616e697a6174696f6e206164647265737320646f6573206e6f742065786040820152636973742160e01b606082015260800190565b6020808252603a908201527f566f746572206f7267616e697a6174696f6e206973206e6f742076657269666960408201527f65642c206e6f74207065726d697474656420746f20766f746521000000000000606082015260800190565b6020808252602e908201527f566f746572206f7267616e697a6174696f6e2063616e6e6f7420766f7465206d60408201526d6f7265207468616e206f6e63652160901b60608201526080019056fea2646970667358221220daa6af178e1b36d9681b3304da3c4ee706ca1b3f4494f3802e4d990e3091fa3564736f6c63430008110033",
    "sourcePath": "c:/EthForAll/Eth-For-All/hardhat/contracts/OrgOperation.sol",
    "compiler": {
        "name": "solc",
        "version": "0.8.17+commit.8df45f5f"
    },
    "functionHashes": {
        "RemoveCharityIfFinancialReportFraud(address)": "4438d4b0",
        "RemoveCharityIfFraud(address)": "ae51c2bc",
        "admin()": "f851a440",
        "changeIsStakedPaid()": "a1b0ffe0",
        "checkFinancialReportStatus(address)": "80e179e9",
        "checkIfDownvoted(address)": "3e85747e",
        "checkIfUpvoted(address)": "c9dfca10",
        "checkVerificationStatus(address)": "6fc3911c",
        "checkViolationStatus(address)": "71206274",
        "countOfDownvotes(address)": "b7627e41",
        "countOfUpvotes(address)": "5cf9303f",
        "countOfViews(address)": "e75176b5",
        "cutStakeOfNotVoted()": "bc489aa9",
        "distributeStake(address,bool)": "1e477180",
        "downVote(address,uint256)": "f15c01dd",
        "emptyListOrganization()": "8fc0ed2f",
        "emptyNotVotedArray(address)": "8e349519",
        "isStaked()": "e3323aba",
        "isVerified()": "80007e83",
        "markAsVerified(address)": "62ae7ac7",
        "notVoted(address)": "a52da85d",
        "registerFinancialReport(address,string,uint256)": "482bd55b",
        "registerOrg(address,string,string,string,uint256)": "440370fe",
        "registerViolation(address,string,string,uint256)": "ac64fcde",
        "reportUpVote(address)": "b5e801d5",
        "reportsDownVote(address)": "14cb11e8",
        "totalOrganizations()": "4cf5d552",
        "unverifiedOrganizationsList()": "2d80468d",
        "upVote(address,uint256)": "e2579114",
        "upvotedOnFinancialReport(address)": "ef2d5847",
        "upvotedOnVerify(address)": "0a54ecbf",
        "verifiedOrganizationsList()": "5d0161f1",
        "violationDownVote(address)": "0037556e",
        "violationUpVote(address)": "55779b65",
        "votingDone(address,uint256)": "4648df2a"
    },
    "gasEstimates": {
        "creation": {
            "codeDepositCost": "2713800",
            "executionCost": "infinite",
            "totalCost": "infinite"
        },
        "external": {
            "": "208",
            "RemoveCharityIfFinancialReportFraud(address)": "infinite",
            "RemoveCharityIfFraud(address)": "infinite",
            "admin()": "2469",
            "changeIsStakedPaid()": "24478",
            "checkFinancialReportStatus(address)": "infinite",
            "checkIfDownvoted(address)": "2709",
            "checkIfUpvoted(address)": "2730",
            "checkVerificationStatus(address)": "infinite",
            "checkViolationStatus(address)": "infinite",
            "countOfDownvotes(address)": "2591",
            "countOfUpvotes(address)": "2591",
            "countOfViews(address)": "infinite",
            "cutStakeOfNotVoted()": "infinite",
            "distributeStake(address,bool)": "infinite",
            "downVote(address,uint256)": "infinite",
            "emptyListOrganization()": "infinite",
            "emptyNotVotedArray(address)": "infinite",
            "isStaked()": "2425",
            "isVerified()": "2427",
            "markAsVerified(address)": "73334",
            "notVoted(address)": "infinite",
            "registerFinancialReport(address,string,uint256)": "infinite",
            "registerOrg(address,string,string,string,uint256)": "infinite",
            "registerViolation(address,string,string,uint256)": "infinite",
            "reportUpVote(address)": "73430",
            "reportsDownVote(address)": "73394",
            "totalOrganizations()": "2385",
            "unverifiedOrganizationsList()": "infinite",
            "upVote(address,uint256)": "infinite",
            "upvotedOnFinancialReport(address)": "infinite",
            "upvotedOnVerify(address)": "infinite",
            "verifiedOrganizationsList()": "infinite",
            "violationDownVote(address)": "73350",
            "violationUpVote(address)": "73415",
            "votingDone(address,uint256)": "2680"
        }
    }
}